{
  "contractName": "Bitcats",
  "abi": [
    {
      "anonymous": false,
      "inputs": [
        {
          "indexed": true,
          "internalType": "address",
          "name": "owner",
          "type": "address"
        },
        {
          "indexed": true,
          "internalType": "address",
          "name": "approved",
          "type": "address"
        },
        {
          "indexed": true,
          "internalType": "uint256",
          "name": "tokenId",
          "type": "uint256"
        }
      ],
      "name": "Approval",
      "type": "event"
    },
    {
      "anonymous": false,
      "inputs": [
        {
          "indexed": true,
          "internalType": "address",
          "name": "from",
          "type": "address"
        },
        {
          "indexed": true,
          "internalType": "address",
          "name": "to",
          "type": "address"
        },
        {
          "indexed": true,
          "internalType": "uint256",
          "name": "tokenId",
          "type": "uint256"
        }
      ],
      "name": "Transfer",
      "type": "event"
    },
    {
      "inputs": [
        {
          "internalType": "uint256",
          "name": "",
          "type": "uint256"
        }
      ],
      "name": "catOwnership",
      "outputs": [
        {
          "internalType": "address",
          "name": "",
          "type": "address"
        }
      ],
      "stateMutability": "view",
      "type": "function",
      "constant": true
    },
    {
      "inputs": [
        {
          "internalType": "address",
          "name": "owner",
          "type": "address"
        }
      ],
      "name": "balanceOf",
      "outputs": [
        {
          "internalType": "uint256",
          "name": "balance",
          "type": "uint256"
        }
      ],
      "stateMutability": "view",
      "type": "function",
      "constant": true
    },
    {
      "inputs": [],
      "name": "totalSupply",
      "outputs": [
        {
          "internalType": "uint256",
          "name": "total",
          "type": "uint256"
        }
      ],
      "stateMutability": "view",
      "type": "function",
      "constant": true
    },
    {
      "inputs": [],
      "name": "name",
      "outputs": [
        {
          "internalType": "string",
          "name": "tokenName",
          "type": "string"
        }
      ],
      "stateMutability": "view",
      "type": "function",
      "constant": true
    },
    {
      "inputs": [],
      "name": "symbol",
      "outputs": [
        {
          "internalType": "string",
          "name": "tokenSymbol",
          "type": "string"
        }
      ],
      "stateMutability": "view",
      "type": "function",
      "constant": true
    },
    {
      "inputs": [
        {
          "internalType": "uint256",
          "name": "tokenId",
          "type": "uint256"
        }
      ],
      "name": "ownerOf",
      "outputs": [
        {
          "internalType": "address",
          "name": "owner",
          "type": "address"
        }
      ],
      "stateMutability": "view",
      "type": "function",
      "constant": true
    },
    {
      "inputs": [
        {
          "internalType": "address",
          "name": "to",
          "type": "address"
        },
        {
          "internalType": "uint256",
          "name": "tokenId",
          "type": "uint256"
        }
      ],
      "name": "transfer",
      "outputs": [],
      "stateMutability": "nonpayable",
      "type": "function"
    }
  ],
  "bytecode": "0x60806040526040518060400160405280600781526020017f42697463617473000000000000000000000000000000000000000000000000008152506000908051906020019062000051929190620000b4565b506040518060400160405280600481526020017f4249544300000000000000000000000000000000000000000000000000000000815250600190805190602001906200009f929190620000b4565b50348015620000ad57600080fd5b50620001c9565b828054620000c29062000164565b90600052602060002090601f016020900481019282620000e6576000855562000132565b82601f106200010157805160ff191683800117855562000132565b8280016001018555821562000132579182015b828111156200013157825182559160200191906001019062000114565b5b50905062000141919062000145565b5090565b5b808211156200016057600081600090555060010162000146565b5090565b600060028204905060018216806200017d57607f821691505b602082108114156200019457620001936200019a565b5b50919050565b7f4e487b7100000000000000000000000000000000000000000000000000000000600052602260045260246000fd5b610bfd80620001d96000396000f3fe608060405234801561001057600080fd5b506004361061007d5760003560e01c806370a082311161005b57806370a08231146100ee57806383e7edd51461011e57806395d89b411461014e578063a9059cbb1461016c5761007d565b806306fdde031461008257806318160ddd146100a05780636352211e146100be575b600080fd5b61008a610188565b604051610097919061095d565b60405180910390f35b6100a861021a565b6040516100b591906109df565b60405180910390f35b6100d860048036038101906100d39190610802565b610227565b6040516100e59190610942565b60405180910390f35b6101086004803603810190610103919061079d565b6102c6565b60405161011591906109df565b60405180910390f35b61013860048036038101906101339190610802565b61030f565b6040516101459190610942565b60405180910390f35b610156610342565b604051610163919061095d565b60405180910390f35b610186600480360381019061018191906107c6565b6103d4565b005b60606000805461019790610aaf565b80601f01602080910402602001604051908101604052809291908181526020018280546101c390610aaf565b80156102105780601f106101e557610100808354040283529160200191610210565b820191906000526020600020905b8154815290600101906020018083116101f357829003601f168201915b5050505050905090565b6000600280549050905090565b6000816005600082815260200190815260200160002060009054906101000a900460ff1661028a576040517f08c379a0000000000000000000000000000000000000000000000000000000008152600401610281906109bf565b60405180910390fd5b6004600084815260200190815260200160002060009054906101000a900473ffffffffffffffffffffffffffffffffffffffff16915050919050565b6000600360008373ffffffffffffffffffffffffffffffffffffffff1673ffffffffffffffffffffffffffffffffffffffff168152602001908152602001600020549050919050565b60046020528060005260406000206000915054906101000a900473ffffffffffffffffffffffffffffffffffffffff1681565b60606001805461035190610aaf565b80601f016020809104026020016040519081016040528092919081815260200182805461037d90610aaf565b80156103ca5780601f1061039f576101008083540402835291602001916103ca565b820191906000526020600020905b8154815290600101906020018083116103ad57829003601f168201915b5050505050905090565b81600073ffffffffffffffffffffffffffffffffffffffff168173ffffffffffffffffffffffffffffffffffffffff161415610445576040517f08c379a000000000000000000000000000000000000000000000000000000000815260040161043c9061097f565b60405180910390fd5b823073ffffffffffffffffffffffffffffffffffffffff168173ffffffffffffffffffffffffffffffffffffffff1614156104b5576040517f08c379a00000000000000000000000000000000000000000000000000000000081526004016104ac9061099f565b60405180910390fd5b823373ffffffffffffffffffffffffffffffffffffffff166004600083815260200190815260200160002060009054906101000a900473ffffffffffffffffffffffffffffffffffffffff1673ffffffffffffffffffffffffffffffffffffffff161461052157600080fd5b61052c338686610533565b5050505050565b82600073ffffffffffffffffffffffffffffffffffffffff168173ffffffffffffffffffffffffffffffffffffffff1614156105a4576040517f08c379a000000000000000000000000000000000000000000000000000000000815260040161059b9061097f565b60405180910390fd5b82600073ffffffffffffffffffffffffffffffffffffffff168173ffffffffffffffffffffffffffffffffffffffff161415610615576040517f08c379a000000000000000000000000000000000000000000000000000000000815260040161060c9061097f565b60405180910390fd5b600360008673ffffffffffffffffffffffffffffffffffffffff1673ffffffffffffffffffffffffffffffffffffffff168152602001908152602001600020600081548092919061066590610a85565b9190505550600360008573ffffffffffffffffffffffffffffffffffffffff1673ffffffffffffffffffffffffffffffffffffffff16815260200190815260200160002060008154809291906106ba90610ae1565b9190505550836004600085815260200190815260200160002060006101000a81548173ffffffffffffffffffffffffffffffffffffffff021916908373ffffffffffffffffffffffffffffffffffffffff160217905550828473ffffffffffffffffffffffffffffffffffffffff168673ffffffffffffffffffffffffffffffffffffffff167fddf252ad1be2c89b69c2b068fc378daa952ba7f163c4a11628f55a4df523b3ef60405160405180910390a45050505050565b60008135905061078281610b99565b92915050565b60008135905061079781610bb0565b92915050565b6000602082840312156107af57600080fd5b60006107bd84828501610773565b91505092915050565b600080604083850312156107d957600080fd5b60006107e785828601610773565b92505060206107f885828601610788565b9150509250929050565b60006020828403121561081457600080fd5b600061082284828501610788565b91505092915050565b61083481610a16565b82525050565b6000610845826109fa565b61084f8185610a05565b935061085f818560208601610a52565b61086881610b88565b840191505092915050565b6000610880601b83610a05565b91507f43616e6e6f7420626520746865207a65726f20616464726573732e00000000006000830152602082019050919050565b60006108c0602083610a05565b91507f43616e6e6f74206265207468697320636f6e747261637420616464726573732e6000830152602082019050919050565b6000610900601e83610a05565b91507f546869732063617420646f65736e27742065786973742c20736f7272792e00006000830152602082019050919050565b61093c81610a48565b82525050565b6000602082019050610957600083018461082b565b92915050565b60006020820190508181036000830152610977818461083a565b905092915050565b6000602082019050818103600083015261099881610873565b9050919050565b600060208201905081810360008301526109b8816108b3565b9050919050565b600060208201905081810360008301526109d8816108f3565b9050919050565b60006020820190506109f46000830184610933565b92915050565b600081519050919050565b600082825260208201905092915050565b6000610a2182610a28565b9050919050565b600073ffffffffffffffffffffffffffffffffffffffff82169050919050565b6000819050919050565b60005b83811015610a70578082015181840152602081019050610a55565b83811115610a7f576000848401525b50505050565b6000610a9082610a48565b91506000821415610aa457610aa3610b2a565b5b600182039050919050565b60006002820490506001821680610ac757607f821691505b60208210811415610adb57610ada610b59565b5b50919050565b6000610aec82610a48565b91507fffffffffffffffffffffffffffffffffffffffffffffffffffffffffffffffff821415610b1f57610b1e610b2a565b5b600182019050919050565b7f4e487b7100000000000000000000000000000000000000000000000000000000600052601160045260246000fd5b7f4e487b7100000000000000000000000000000000000000000000000000000000600052602260045260246000fd5b6000601f19601f8301169050919050565b610ba281610a16565b8114610bad57600080fd5b50565b610bb981610a48565b8114610bc457600080fd5b5056fea264697066735822122009a820961a8a755a0181818c89ed0342b5fad0379d09d6cc2d67c278ac5669a964736f6c63430008000033",
  "immutableReferences": {},
  "source": "// SPDX-License-Identifier: MIT\n\n/**\n * @author Nes B.\n * @dev Bitcats ERC721 main contract\n * @notice Developed using Truffle 5.3.2\n */\n \npragma solidity ^0.8.0;\n\nimport \"./IERC721.sol\";\n\ncontract Bitcats is IERC721 {\n\n    string contractName = \"Bitcats\";\n    string ticker = \"BITC\";\n\n    struct Cat {\n        uint256 genes;\n        uint64 birthTime;\n        uint32 momId;\n        uint32 dadId;\n        uint16 generation;\n    }\n\n    Cat[] cats;\n\n    mapping (address => uint256) ownedTokenCount;\n    mapping (uint256 => address) public catOwnership;\n    mapping (uint256 => bool) catExists;\n    \n    /**\n     * MODIFIERS\n     */\n    modifier noZero(address _address) {\n        require(_address != address(0), \"Cannot be the zero address.\");\n        _;\n    }\n\n    modifier notThisContract(address _address) {\n        require(_address != address(this), \"Cannot be this contract address.\");\n        _;\n    }\n\n    modifier isOwner(uint256 tokenId) {\n        require(catOwnership[tokenId] ==  msg.sender);\n        _;\n    }\n\n    modifier catMustExist(uint256 tokenId) {\n        require(catExists[tokenId], \"This cat doesn't exist, sorry.\");\n        _;\n    }\n\n    /**\n     * ERC721 implementation\n     */\n\n    /**\n     * @dev Returns the number of tokens in ``owner``'s account.\n     */\n    function balanceOf(address owner) external view override returns (uint256 balance) {\n        return ownedTokenCount[owner];\n    }\n\n    /**\n     * @dev Returns the total number of tokens in circulation.\n     */\n    function totalSupply() external view override returns (uint256 total) {\n        return cats.length;\n    }\n\n    /**\n     * @dev Returns the name of the token.\n     */\n    function name() external view override returns (string memory tokenName) {\n        return contractName;\n    }\n\n    /**\n     * @dev Returns the symbol of the token.\n     */\n    function symbol() external view override returns (string memory tokenSymbol) {\n        return ticker;\n    }\n\n    /**\n     * @dev Returns the owner of the `tokenId` token.\n     *\n     * Requirements:\n     *\n     * - `tokenId` must exist.\n     */\n    function ownerOf(uint256 tokenId) external view override catMustExist(tokenId) returns (address owner) {\n        return catOwnership[tokenId];\n    }\n\n\n     /** \n     @dev Transfers `tokenId` token from `msg.sender` to `to`.\n     *\n     *\n     * Requirements:\n     *\n     * - `to` cannot be the zero address.\n     * - `to` can not be the contract address.\n     * - `tokenId` token must be owned by `msg.sender`.\n     *\n     * Emits a {Transfer} event.\n     */\n    function transfer(address to, uint256 tokenId) external override noZero(to) notThisContract(to) isOwner(tokenId) {\n        _transfer(msg.sender, to, tokenId);\n    }\n\n    function _transfer(address _from, address _to, uint256 _tokenId) internal noZero(_from) noZero(_to) {\n        ownedTokenCount[_from]--;\n        ownedTokenCount[_to]++;\n        catOwnership[_tokenId] = _to;\n        emit Transfer(_from, _to, _tokenId);\n    }\n\n    function _owns (address _claimant, uint256 _tokenId) internal view returns (bool) {\n        if(catOwnership[_tokenId] == _claimant) {\n            return true;\n        } else {\n            return false;\n        }\n    }\n\n}",
  "sourcePath": "/Users/solaris/Workspace/SolidityWS/bitcats/contracts/Bitcats.sol",
  "compiler": {
    "name": "solc",
    "version": "0.8.0+commit.c7dfd78e.Emscripten.clang"
  },
  "schemaVersion": "3.3.4",
  "updatedAt": "2021-05-04T06:24:00.803Z",
  "networkType": "ethereum",
  "devdoc": {
    "kind": "dev",
    "methods": {
      "balanceOf(address)": {
        "details": "Returns the number of tokens in ``owner``'s account."
      },
      "name()": {
        "details": "Returns the name of the token."
      },
      "ownerOf(uint256)": {
        "details": "Returns the owner of the `tokenId` token. Requirements: - `tokenId` must exist."
      },
      "symbol()": {
        "details": "Returns the symbol of the token."
      },
      "totalSupply()": {
        "details": "Returns the total number of tokens in circulation."
      },
      "transfer(address,uint256)": {
        "details": "Transfers `tokenId` token from `msg.sender` to `to`. Requirements: - `to` cannot be the zero address. - `to` can not be the contract address. - `tokenId` token must be owned by `msg.sender`. Emits a {Transfer} event."
      }
    },
    "version": 1
  },
  "userdoc": {
    "kind": "user",
    "methods": {},
    "version": 1
  }
}