{
  "contractName": "Bitcats",
  "abi": [
    {
      "anonymous": false,
      "inputs": [
        {
          "indexed": true,
          "internalType": "address",
          "name": "owner",
          "type": "address"
        },
        {
          "indexed": true,
          "internalType": "address",
          "name": "approved",
          "type": "address"
        },
        {
          "indexed": true,
          "internalType": "uint256",
          "name": "tokenId",
          "type": "uint256"
        }
      ],
      "name": "Approval",
      "type": "event"
    },
    {
      "anonymous": false,
      "inputs": [
        {
          "indexed": false,
          "internalType": "address",
          "name": "_owner",
          "type": "address"
        },
        {
          "indexed": false,
          "internalType": "uint256",
          "name": "_catId",
          "type": "uint256"
        },
        {
          "indexed": false,
          "internalType": "uint256",
          "name": "_momId",
          "type": "uint256"
        },
        {
          "indexed": false,
          "internalType": "uint256",
          "name": "_dadId",
          "type": "uint256"
        },
        {
          "indexed": false,
          "internalType": "uint256",
          "name": "_genes",
          "type": "uint256"
        }
      ],
      "name": "Birth",
      "type": "event"
    },
    {
      "anonymous": false,
      "inputs": [
        {
          "indexed": true,
          "internalType": "address",
          "name": "previousOwner",
          "type": "address"
        },
        {
          "indexed": true,
          "internalType": "address",
          "name": "newOwner",
          "type": "address"
        }
      ],
      "name": "OwnershipTransferred",
      "type": "event"
    },
    {
      "anonymous": false,
      "inputs": [
        {
          "indexed": true,
          "internalType": "address",
          "name": "from",
          "type": "address"
        },
        {
          "indexed": true,
          "internalType": "address",
          "name": "to",
          "type": "address"
        },
        {
          "indexed": true,
          "internalType": "uint256",
          "name": "tokenId",
          "type": "uint256"
        }
      ],
      "name": "Transfer",
      "type": "event"
    },
    {
      "inputs": [],
      "name": "CREATION_LIMIT_GEN0",
      "outputs": [
        {
          "internalType": "uint256",
          "name": "",
          "type": "uint256"
        }
      ],
      "stateMutability": "view",
      "type": "function",
      "constant": true
    },
    {
      "inputs": [
        {
          "internalType": "uint256",
          "name": "",
          "type": "uint256"
        }
      ],
      "name": "catOwnership",
      "outputs": [
        {
          "internalType": "address",
          "name": "",
          "type": "address"
        }
      ],
      "stateMutability": "view",
      "type": "function",
      "constant": true
    },
    {
      "inputs": [],
      "name": "contractName",
      "outputs": [
        {
          "internalType": "string",
          "name": "",
          "type": "string"
        }
      ],
      "stateMutability": "view",
      "type": "function",
      "constant": true
    },
    {
      "inputs": [],
      "name": "gen0counter",
      "outputs": [
        {
          "internalType": "uint256",
          "name": "",
          "type": "uint256"
        }
      ],
      "stateMutability": "view",
      "type": "function",
      "constant": true
    },
    {
      "inputs": [],
      "name": "owner",
      "outputs": [
        {
          "internalType": "address",
          "name": "",
          "type": "address"
        }
      ],
      "stateMutability": "view",
      "type": "function",
      "constant": true
    },
    {
      "inputs": [],
      "name": "renounceOwnership",
      "outputs": [],
      "stateMutability": "nonpayable",
      "type": "function"
    },
    {
      "inputs": [],
      "name": "ticker",
      "outputs": [
        {
          "internalType": "string",
          "name": "",
          "type": "string"
        }
      ],
      "stateMutability": "view",
      "type": "function",
      "constant": true
    },
    {
      "inputs": [
        {
          "internalType": "address",
          "name": "newOwner",
          "type": "address"
        }
      ],
      "name": "transferOwnership",
      "outputs": [],
      "stateMutability": "nonpayable",
      "type": "function"
    },
    {
      "inputs": [
        {
          "internalType": "uint256",
          "name": "_genes",
          "type": "uint256"
        }
      ],
      "name": "createCatGen0",
      "outputs": [],
      "stateMutability": "nonpayable",
      "type": "function"
    },
    {
      "inputs": [
        {
          "internalType": "uint256",
          "name": "_tokenId",
          "type": "uint256"
        }
      ],
      "name": "getCat",
      "outputs": [
        {
          "internalType": "uint256",
          "name": "momId_",
          "type": "uint256"
        },
        {
          "internalType": "uint256",
          "name": "dadId_",
          "type": "uint256"
        },
        {
          "internalType": "uint256",
          "name": "birthtime_",
          "type": "uint256"
        },
        {
          "internalType": "uint256",
          "name": "generation_",
          "type": "uint256"
        },
        {
          "internalType": "uint256",
          "name": "genes_",
          "type": "uint256"
        },
        {
          "internalType": "address",
          "name": "owner_",
          "type": "address"
        }
      ],
      "stateMutability": "view",
      "type": "function",
      "constant": true
    },
    {
      "inputs": [
        {
          "internalType": "address",
          "name": "owner",
          "type": "address"
        }
      ],
      "name": "balanceOf",
      "outputs": [
        {
          "internalType": "uint256",
          "name": "balance",
          "type": "uint256"
        }
      ],
      "stateMutability": "view",
      "type": "function",
      "constant": true
    },
    {
      "inputs": [],
      "name": "totalSupply",
      "outputs": [
        {
          "internalType": "uint256",
          "name": "total",
          "type": "uint256"
        }
      ],
      "stateMutability": "view",
      "type": "function",
      "constant": true
    },
    {
      "inputs": [],
      "name": "name",
      "outputs": [
        {
          "internalType": "string",
          "name": "tokenName",
          "type": "string"
        }
      ],
      "stateMutability": "pure",
      "type": "function",
      "constant": true
    },
    {
      "inputs": [],
      "name": "symbol",
      "outputs": [
        {
          "internalType": "string",
          "name": "tokenSymbol",
          "type": "string"
        }
      ],
      "stateMutability": "pure",
      "type": "function",
      "constant": true
    },
    {
      "inputs": [
        {
          "internalType": "uint256",
          "name": "tokenId",
          "type": "uint256"
        }
      ],
      "name": "ownerOf",
      "outputs": [
        {
          "internalType": "address",
          "name": "owner",
          "type": "address"
        }
      ],
      "stateMutability": "view",
      "type": "function",
      "constant": true
    },
    {
      "inputs": [
        {
          "internalType": "address",
          "name": "to",
          "type": "address"
        },
        {
          "internalType": "uint256",
          "name": "tokenId",
          "type": "uint256"
        }
      ],
      "name": "transfer",
      "outputs": [],
      "stateMutability": "nonpayable",
      "type": "function"
    }
  ],
  "bytecode": "0x608060405234801561001057600080fd5b5060006100216100c460201b60201c565b9050806000806101000a81548173ffffffffffffffffffffffffffffffffffffffff021916908373ffffffffffffffffffffffffffffffffffffffff1602179055508073ffffffffffffffffffffffffffffffffffffffff16600073ffffffffffffffffffffffffffffffffffffffff167f8be0079c531659141344cd1fd0a4f28419497f9722a3daafe3b4186f6b6457e060405160405180910390a3506100cc565b600033905090565b611641806100db6000396000f3fe608060405234801561001057600080fd5b50600436106101005760003560e01c806383e7edd511610097578063a9059cbb11610066578063a9059cbb146102a4578063b4834330146102c0578063da08b833146102de578063f2fde38b146102fc57610100565b806383e7edd51461021a5780638ba47bdd1461024a5780638da5cb5b1461026857806395d89b411461028657610100565b80636352211e116100d35780636352211e1461019257806370a08231146101c2578063715018a6146101f257806375d0c0dc146101fc57610100565b806306fdde031461010557806312a55c961461012357806318160ddd1461013f5780634da2b48e1461015d575b600080fd5b61010d610318565b60405161011a91906112ed565b60405180910390f35b61013d60048036038101906101389190611019565b610355565b005b610147610440565b60405161015491906113ef565b60405180910390f35b61017760048036038101906101729190611019565b61044d565b6040516101899695949392919061140a565b60405180910390f35b6101ac60048036038101906101a79190611019565b610561565b6040516101b9919061127f565b60405180910390f35b6101dc60048036038101906101d79190610fb4565b610600565b6040516101e991906113ef565b60405180910390f35b6101fa610649565b005b610204610783565b60405161021191906112ed565b60405180910390f35b610234600480360381019061022f9190611019565b6107bc565b604051610241919061127f565b60405180910390f35b6102526107ef565b60405161025f91906112ed565b60405180910390f35b610270610828565b60405161027d919061127f565b60405180910390f35b61028e610851565b60405161029b91906112ed565b60405180910390f35b6102be60048036038101906102b99190610fdd565b61088e565b005b6102c8610a23565b6040516102d591906113ef565b60405180910390f35b6102e6610a28565b6040516102f391906113ef565b60405180910390f35b61031660048036038101906103119190610fb4565b610a2e565b005b60606040518060400160405280600781526020017f4269746361747300000000000000000000000000000000000000000000000000815250905090565b61035d610bd7565b73ffffffffffffffffffffffffffffffffffffffff1661037b610828565b73ffffffffffffffffffffffffffffffffffffffff16146103d1576040517f08c379a00000000000000000000000000000000000000000000000000000000081526004016103c8906113af565b60405180910390fd5b6005805410610415576040517f08c379a000000000000000000000000000000000000000000000000000000000815260040161040c9061134f565b60405180910390fd5b6005600081548092919061042890611554565b919050555061043c60008060008433610bdf565b5050565b6000600180549050905090565b600080600080600080600060018881548110610492577f4e487b7100000000000000000000000000000000000000000000000000000000600052603260045260246000fd5b906000526020600020906002020190508060010160089054906101000a900463ffffffff1663ffffffff16965080600101600c9054906101000a900463ffffffff1663ffffffff1695508060010160109054906101000a900461ffff1661ffff1693508060010160009054906101000a900467ffffffffffffffff1667ffffffffffffffff169450806000015492506003600089815260200190815260200160002060009054906101000a900473ffffffffffffffffffffffffffffffffffffffff1691505091939550919395565b6000816004600082815260200190815260200160002060009054906101000a900460ff166105c4576040517f08c379a00000000000000000000000000000000000000000000000000000000081526004016105bb9061138f565b60405180910390fd5b6003600084815260200190815260200160002060009054906101000a900473ffffffffffffffffffffffffffffffffffffffff16915050919050565b6000600260008373ffffffffffffffffffffffffffffffffffffffff1673ffffffffffffffffffffffffffffffffffffffff168152602001908152602001600020549050919050565b610651610bd7565b73ffffffffffffffffffffffffffffffffffffffff1661066f610828565b73ffffffffffffffffffffffffffffffffffffffff16146106c5576040517f08c379a00000000000000000000000000000000000000000000000000000000081526004016106bc906113af565b60405180910390fd5b600073ffffffffffffffffffffffffffffffffffffffff1660008054906101000a900473ffffffffffffffffffffffffffffffffffffffff1673ffffffffffffffffffffffffffffffffffffffff167f8be0079c531659141344cd1fd0a4f28419497f9722a3daafe3b4186f6b6457e060405160405180910390a360008060006101000a81548173ffffffffffffffffffffffffffffffffffffffff021916908373ffffffffffffffffffffffffffffffffffffffff160217905550565b6040518060400160405280600781526020017f426974636174730000000000000000000000000000000000000000000000000081525081565b60036020528060005260406000206000915054906101000a900473ffffffffffffffffffffffffffffffffffffffff1681565b6040518060400160405280600481526020017f424954430000000000000000000000000000000000000000000000000000000081525081565b60008060009054906101000a900473ffffffffffffffffffffffffffffffffffffffff16905090565b60606040518060400160405280600481526020017f4249544300000000000000000000000000000000000000000000000000000000815250905090565b81600073ffffffffffffffffffffffffffffffffffffffff168173ffffffffffffffffffffffffffffffffffffffff1614156108ff576040517f08c379a00000000000000000000000000000000000000000000000000000000081526004016108f69061130f565b60405180910390fd5b823073ffffffffffffffffffffffffffffffffffffffff168173ffffffffffffffffffffffffffffffffffffffff16141561096f576040517f08c379a00000000000000000000000000000000000000000000000000000000081526004016109669061136f565b60405180910390fd5b823373ffffffffffffffffffffffffffffffffffffffff166003600083815260200190815260200160002060009054906101000a900473ffffffffffffffffffffffffffffffffffffffff1673ffffffffffffffffffffffffffffffffffffffff1614610a11576040517f08c379a0000000000000000000000000000000000000000000000000000000008152600401610a08906113cf565b60405180910390fd5b610a1c338686610e2e565b5050505050565b600581565b60055481565b610a36610bd7565b73ffffffffffffffffffffffffffffffffffffffff16610a54610828565b73ffffffffffffffffffffffffffffffffffffffff1614610aaa576040517f08c379a0000000000000000000000000000000000000000000000000000000008152600401610aa1906113af565b60405180910390fd5b600073ffffffffffffffffffffffffffffffffffffffff168173ffffffffffffffffffffffffffffffffffffffff161415610b1a576040517f08c379a0000000000000000000000000000000000000000000000000000000008152600401610b119061132f565b60405180910390fd5b8073ffffffffffffffffffffffffffffffffffffffff1660008054906101000a900473ffffffffffffffffffffffffffffffffffffffff1673ffffffffffffffffffffffffffffffffffffffff167f8be0079c531659141344cd1fd0a4f28419497f9722a3daafe3b4186f6b6457e060405160405180910390a3806000806101000a81548173ffffffffffffffffffffffffffffffffffffffff021916908373ffffffffffffffffffffffffffffffffffffffff16021790555050565b600033905090565b6000806040518060a001604052808581526020014267ffffffffffffffff1681526020018863ffffffff1681526020018763ffffffff1681526020018661ffff16815250905060018190806001815401808255809150506001900390600052602060002090600202016000909190919091506000820151816000015560208201518160010160006101000a81548167ffffffffffffffff021916908367ffffffffffffffff16021790555060408201518160010160086101000a81548163ffffffff021916908363ffffffff160217905550606082015181600101600c6101000a81548163ffffffff021916908363ffffffff16021790555060808201518160010160106101000a81548161ffff021916908361ffff1602179055505050600060018080549050610d109190611487565b905060016004600083815260200190815260200160002060006101000a81548160ff021916908315150217905550836003600083815260200190815260200160002060006101000a81548173ffffffffffffffffffffffffffffffffffffffff021916908373ffffffffffffffffffffffffffffffffffffffff1602179055506001600260008073ffffffffffffffffffffffffffffffffffffffff1673ffffffffffffffffffffffffffffffffffffffff16815260200190815260200160002081905550610de160008583610e2e565b7f0a5311bd2a6608f08a180df2ee7c5946819a649b204b554bb8e39825b2c50ad584828a8a89604051610e1895949392919061129a565b60405180910390a1809250505095945050505050565b600260008473ffffffffffffffffffffffffffffffffffffffff1673ffffffffffffffffffffffffffffffffffffffff1681526020019081526020016000206000815480929190610e7e9061152a565b9190505550600260008373ffffffffffffffffffffffffffffffffffffffff1673ffffffffffffffffffffffffffffffffffffffff1681526020019081526020016000206000815480929190610ed390611554565b9190505550816003600083815260200190815260200160002060006101000a81548173ffffffffffffffffffffffffffffffffffffffff021916908373ffffffffffffffffffffffffffffffffffffffff160217905550808273ffffffffffffffffffffffffffffffffffffffff168473ffffffffffffffffffffffffffffffffffffffff167fddf252ad1be2c89b69c2b068fc378daa952ba7f163c4a11628f55a4df523b3ef60405160405180910390a4505050565b600081359050610f99816115dd565b92915050565b600081359050610fae816115f4565b92915050565b600060208284031215610fc657600080fd5b6000610fd484828501610f8a565b91505092915050565b60008060408385031215610ff057600080fd5b6000610ffe85828601610f8a565b925050602061100f85828601610f9f565b9150509250929050565b60006020828403121561102b57600080fd5b600061103984828501610f9f565b91505092915050565b61104b816114bb565b82525050565b600061105c8261146b565b6110668185611476565b93506110768185602086016114f7565b61107f816115cc565b840191505092915050565b6000611097601b83611476565b91507f43616e6e6f7420626520746865207a65726f20616464726573732e00000000006000830152602082019050919050565b60006110d7602683611476565b91507f4f776e61626c653a206e6577206f776e657220697320746865207a65726f206160008301527f64647265737300000000000000000000000000000000000000000000000000006020830152604082019050919050565b600061113d601683611476565b91507f4372656174696f6e206c696d69742072656163686564000000000000000000006000830152602082019050919050565b600061117d602083611476565b91507f43616e6e6f74206265207468697320636f6e747261637420616464726573732e6000830152602082019050919050565b60006111bd601e83611476565b91507f546869732063617420646f65736e27742065786973742c20736f7272792e00006000830152602082019050919050565b60006111fd602083611476565b91507f4f776e61626c653a2063616c6c6572206973206e6f7420746865206f776e65726000830152602082019050919050565b600061123d601783611476565b91507f596f7520646f206e6f74206f776e2074686973206361740000000000000000006000830152602082019050919050565b611279816114ed565b82525050565b60006020820190506112946000830184611042565b92915050565b600060a0820190506112af6000830188611042565b6112bc6020830187611270565b6112c96040830186611270565b6112d66060830185611270565b6112e36080830184611270565b9695505050505050565b600060208201905081810360008301526113078184611051565b905092915050565b600060208201905081810360008301526113288161108a565b9050919050565b60006020820190508181036000830152611348816110ca565b9050919050565b6000602082019050818103600083015261136881611130565b9050919050565b6000602082019050818103600083015261138881611170565b9050919050565b600060208201905081810360008301526113a8816111b0565b9050919050565b600060208201905081810360008301526113c8816111f0565b9050919050565b600060208201905081810360008301526113e881611230565b9050919050565b60006020820190506114046000830184611270565b92915050565b600060c08201905061141f6000830189611270565b61142c6020830188611270565b6114396040830187611270565b6114466060830186611270565b6114536080830185611270565b61146060a0830184611042565b979650505050505050565b600081519050919050565b600082825260208201905092915050565b6000611492826114ed565b915061149d836114ed565b9250828210156114b0576114af61159d565b5b828203905092915050565b60006114c6826114cd565b9050919050565b600073ffffffffffffffffffffffffffffffffffffffff82169050919050565b6000819050919050565b60005b838110156115155780820151818401526020810190506114fa565b83811115611524576000848401525b50505050565b6000611535826114ed565b915060008214156115495761154861159d565b5b600182039050919050565b600061155f826114ed565b91507fffffffffffffffffffffffffffffffffffffffffffffffffffffffffffffffff8214156115925761159161159d565b5b600182019050919050565b7f4e487b7100000000000000000000000000000000000000000000000000000000600052601160045260246000fd5b6000601f19601f8301169050919050565b6115e6816114bb565b81146115f157600080fd5b50565b6115fd816114ed565b811461160857600080fd5b5056fea26469706673582212206b38b9859c23b49e383125a5cfb300c84943ad1a399ab9396717fcf24a7a08a864736f6c63430008000033",
  "immutableReferences": {},
  "source": "// SPDX-License-Identifier: MIT\n\n/**\n * @author Nes B.\n * @dev Bitcats ERC721 main contract & functions\n * @notice Developed using Truffle 5.3.2\n */\npragma solidity ^0.8.0;\n\nimport \"./IERC721.sol\";\nimport \"./Ownable.sol\";\n\ncontract Bitcats is IERC721, Ownable {\n\n    uint256 public constant CREATION_LIMIT_GEN0 = 5;\n    string public constant contractName = \"Bitcats\";\n    string public constant ticker = \"BITC\";\n\n    struct Cat {\n        uint256 genes;\n        uint64 birthTime;\n        uint32 momId;\n        uint32 dadId;\n        uint16 generation;\n    }\n\n    Cat[] cats;\n\n    mapping (address => uint256) ownedTokenCount;\n    mapping (uint256 => address) public catOwnership;\n    mapping (uint256 => bool) catExists;\n    \n    uint256 public gen0counter;\n    /**\n     * MODIFIERS\n     */\n    modifier noZero(address _address) {\n        require(_address != address(0), \"Cannot be the zero address.\");\n        _;\n    }\n\n    modifier notThisContract(address _address) {\n        require(_address != address(this), \"Cannot be this contract address.\");\n        _;\n    }\n\n    modifier catMustExist(uint256 tokenId) {\n        require(catExists[tokenId], \"This cat doesn't exist, sorry.\");\n        _;\n    }\n\n    modifier onlyCatOwner(uint tokenId) {\n        require(catOwnership[tokenId] == address(msg.sender), \"You do not own this cat\");\n        _;\n    }\n\n    /**\n     * Creating cats\n     */\n    event Birth(address _owner, uint256 _catId, uint256 _momId, uint256 _dadId, uint256 _genes);\n\n    function _createCat(\n        uint256 _momId,\n        uint256 _dadId,\n        uint256 _generation,\n        uint256 _genes,\n        address _owner\n    ) private returns (uint256) {\n        \n        Cat memory _cat = Cat({\n            genes: _genes,\n            birthTime: uint64(block.timestamp),\n            momId: uint32(_momId),\n            dadId: uint32(_dadId),\n            generation: uint16(_generation)\n        });\n\n        cats.push(_cat);\n\n        uint256 newCatId = cats.length - 1;\n\n        catExists[newCatId] =  true;         // Updating mappings\n        catOwnership[newCatId] = _owner;     // Updating mappings\n\n        ownedTokenCount[address(0)] = 1;\n\n        _transfer(address(0), _owner, newCatId);\n\n        emit Birth(_owner, newCatId, _momId, _dadId, _genes);\n\n        return newCatId;\n    }\n\n    function createCatGen0(uint256 _genes) public onlyOwner {\n        require(gen0counter < CREATION_LIMIT_GEN0, \"Creation limit reached\");\n        gen0counter++;\n        _createCat(0, 0, 0, _genes, msg.sender);\n    }\n\n    function getCat(uint256 _tokenId) public view returns (\n        uint256 momId_, \n        uint256 dadId_,\n        uint256 birthtime_,\n        uint256 generation_, \n        uint256 genes_, \n        address owner_\n    ) \n    {\n        Cat storage cat = cats[_tokenId];\n\n        momId_ = cat.momId;\n        dadId_ = cat.dadId;\n        generation_ = cat.generation;\n        birthtime_ = cat.birthTime;\n        genes_ = cat.genes;\n        owner_ = catOwnership[_tokenId];\n    }\n\n    /**\n     * ERC721 implementation\n     */\n\n    /**\n     * @dev Returns the number of tokens in ``owner``'s account.\n     */\n    function balanceOf(address owner) external view override returns (uint256 balance) {\n        return ownedTokenCount[owner];\n    }\n\n    /**\n     * @dev Returns the total number of tokens in circulation.\n     */\n    function totalSupply() external view override returns (uint256 total) {\n        return cats.length;\n    }\n\n    /**\n     * @dev Returns the name of the token.\n     */\n    function name() external pure override returns (string memory tokenName) {\n        return contractName;\n    }\n\n    /**\n     * @dev Returns the symbol of the token.\n     */\n    function symbol() external pure override returns (string memory tokenSymbol) {\n        return ticker;\n    }\n\n    /**\n     * @dev Returns the owner of the `tokenId` token.\n     *\n     * Requirements:\n     *\n     * - `tokenId` must exist.\n     */\n    function ownerOf(uint256 tokenId) external view override catMustExist(tokenId) returns (address owner) {\n        return catOwnership[tokenId];\n    }\n\n\n     /** \n     @dev Transfers `tokenId` token from `msg.sender` to `to`.\n     *\n     *\n     * Requirements:\n     *\n     * - `to` cannot be the zero address.\n     * - `to` can not be the contract address.\n     * - `tokenId` token must be owned by `msg.sender`.\n     *\n     * Emits a {Transfer} event.\n     */\n    function transfer(address to, uint256 tokenId) external override noZero(to) notThisContract(to) onlyCatOwner(tokenId) {\n        _transfer(msg.sender, to, tokenId);\n    }\n\n    function _transfer(address _from, address _to, uint256 _tokenId) internal {\n        ownedTokenCount[_from]--;\n        ownedTokenCount[_to]++;\n        catOwnership[_tokenId] = _to;\n        emit Transfer(_from, _to, _tokenId);\n    }\n\n    function _owns (address _claimant, uint256 _tokenId) internal view returns (bool) {\n        if(catOwnership[_tokenId] == _claimant) {\n            return true;\n        } else {\n            return false;\n        }\n    }\n\n}",
  "sourcePath": "/Users/solaris/Workspace/SolidityWS/bitcats/contracts/Bitcats.sol",
  "compiler": {
    "name": "solc",
    "version": "0.8.0+commit.c7dfd78e.Emscripten.clang"
  },
  "schemaVersion": "3.3.4",
  "updatedAt": "2021-05-06T04:25:39.967Z",
  "networkType": "ethereum",
  "devdoc": {
    "kind": "dev",
    "methods": {
      "balanceOf(address)": {
        "details": "Returns the number of tokens in ``owner``'s account."
      },
      "name()": {
        "details": "Returns the name of the token."
      },
      "owner()": {
        "details": "Returns the address of the current owner."
      },
      "ownerOf(uint256)": {
        "details": "Returns the owner of the `tokenId` token. Requirements: - `tokenId` must exist."
      },
      "renounceOwnership()": {
        "details": "Leaves the contract without owner. It will not be possible to call `onlyOwner` functions anymore. Can only be called by the current owner. NOTE: Renouncing ownership will leave the contract without an owner, thereby removing any functionality that is only available to the owner."
      },
      "symbol()": {
        "details": "Returns the symbol of the token."
      },
      "totalSupply()": {
        "details": "Returns the total number of tokens in circulation."
      },
      "transfer(address,uint256)": {
        "details": "Transfers `tokenId` token from `msg.sender` to `to`. Requirements: - `to` cannot be the zero address. - `to` can not be the contract address. - `tokenId` token must be owned by `msg.sender`. Emits a {Transfer} event."
      },
      "transferOwnership(address)": {
        "details": "Transfers ownership of the contract to a new account (`newOwner`). Can only be called by the current owner."
      }
    },
    "version": 1
  },
  "userdoc": {
    "events": {
      "Birth(address,uint256,uint256,uint256,uint256)": {
        "notice": "Creating cats"
      }
    },
    "kind": "user",
    "methods": {},
    "version": 1
  }
}