{
  "contractName": "Bitcats",
  "abi": [
    {
      "anonymous": false,
      "inputs": [
        {
          "indexed": true,
          "internalType": "address",
          "name": "owner",
          "type": "address"
        },
        {
          "indexed": true,
          "internalType": "address",
          "name": "approved",
          "type": "address"
        },
        {
          "indexed": true,
          "internalType": "uint256",
          "name": "tokenId",
          "type": "uint256"
        }
      ],
      "name": "Approval",
      "type": "event"
    },
    {
      "anonymous": false,
      "inputs": [
        {
          "indexed": true,
          "internalType": "address",
          "name": "owner",
          "type": "address"
        },
        {
          "indexed": true,
          "internalType": "address",
          "name": "operator",
          "type": "address"
        },
        {
          "indexed": false,
          "internalType": "bool",
          "name": "approved",
          "type": "bool"
        }
      ],
      "name": "ApprovalForAll",
      "type": "event"
    },
    {
      "anonymous": false,
      "inputs": [
        {
          "indexed": false,
          "internalType": "address",
          "name": "_owner",
          "type": "address"
        },
        {
          "indexed": false,
          "internalType": "uint256",
          "name": "_catId",
          "type": "uint256"
        },
        {
          "indexed": false,
          "internalType": "uint256",
          "name": "_momId",
          "type": "uint256"
        },
        {
          "indexed": false,
          "internalType": "uint256",
          "name": "_dadId",
          "type": "uint256"
        },
        {
          "indexed": false,
          "internalType": "uint256",
          "name": "_genes",
          "type": "uint256"
        }
      ],
      "name": "Birth",
      "type": "event"
    },
    {
      "anonymous": false,
      "inputs": [
        {
          "indexed": true,
          "internalType": "address",
          "name": "previousOwner",
          "type": "address"
        },
        {
          "indexed": true,
          "internalType": "address",
          "name": "newOwner",
          "type": "address"
        }
      ],
      "name": "OwnershipTransferred",
      "type": "event"
    },
    {
      "anonymous": false,
      "inputs": [
        {
          "indexed": true,
          "internalType": "address",
          "name": "from",
          "type": "address"
        },
        {
          "indexed": true,
          "internalType": "address",
          "name": "to",
          "type": "address"
        },
        {
          "indexed": true,
          "internalType": "uint256",
          "name": "tokenId",
          "type": "uint256"
        }
      ],
      "name": "Transfer",
      "type": "event"
    },
    {
      "inputs": [],
      "name": "CREATION_LIMIT_GEN0",
      "outputs": [
        {
          "internalType": "uint256",
          "name": "",
          "type": "uint256"
        }
      ],
      "stateMutability": "view",
      "type": "function"
    },
    {
      "inputs": [
        {
          "internalType": "uint256",
          "name": "",
          "type": "uint256"
        }
      ],
      "name": "catIndexApproved",
      "outputs": [
        {
          "internalType": "address",
          "name": "",
          "type": "address"
        }
      ],
      "stateMutability": "view",
      "type": "function"
    },
    {
      "inputs": [
        {
          "internalType": "uint256",
          "name": "",
          "type": "uint256"
        }
      ],
      "name": "catOwnership",
      "outputs": [
        {
          "internalType": "address",
          "name": "",
          "type": "address"
        }
      ],
      "stateMutability": "view",
      "type": "function"
    },
    {
      "inputs": [],
      "name": "contractName",
      "outputs": [
        {
          "internalType": "string",
          "name": "",
          "type": "string"
        }
      ],
      "stateMutability": "view",
      "type": "function"
    },
    {
      "inputs": [],
      "name": "gen0counter",
      "outputs": [
        {
          "internalType": "uint256",
          "name": "",
          "type": "uint256"
        }
      ],
      "stateMutability": "view",
      "type": "function"
    },
    {
      "inputs": [],
      "name": "owner",
      "outputs": [
        {
          "internalType": "address",
          "name": "",
          "type": "address"
        }
      ],
      "stateMutability": "view",
      "type": "function"
    },
    {
      "inputs": [],
      "name": "renounceOwnership",
      "outputs": [],
      "stateMutability": "nonpayable",
      "type": "function"
    },
    {
      "inputs": [],
      "name": "ticker",
      "outputs": [
        {
          "internalType": "string",
          "name": "",
          "type": "string"
        }
      ],
      "stateMutability": "view",
      "type": "function"
    },
    {
      "inputs": [
        {
          "internalType": "address",
          "name": "newOwner",
          "type": "address"
        }
      ],
      "name": "transferOwnership",
      "outputs": [],
      "stateMutability": "nonpayable",
      "type": "function"
    },
    {
      "inputs": [
        {
          "internalType": "uint256",
          "name": "_genes",
          "type": "uint256"
        }
      ],
      "name": "createCatGen0",
      "outputs": [],
      "stateMutability": "nonpayable",
      "type": "function"
    },
    {
      "inputs": [
        {
          "internalType": "uint256",
          "name": "_tokenId",
          "type": "uint256"
        }
      ],
      "name": "getCat",
      "outputs": [
        {
          "internalType": "uint256",
          "name": "momId",
          "type": "uint256"
        },
        {
          "internalType": "uint256",
          "name": "dadId",
          "type": "uint256"
        },
        {
          "internalType": "uint256",
          "name": "birthtime",
          "type": "uint256"
        },
        {
          "internalType": "uint256",
          "name": "generation",
          "type": "uint256"
        },
        {
          "internalType": "uint256",
          "name": "genes",
          "type": "uint256"
        },
        {
          "internalType": "address",
          "name": "owner",
          "type": "address"
        }
      ],
      "stateMutability": "view",
      "type": "function"
    },
    {
      "inputs": [
        {
          "internalType": "address",
          "name": "owner",
          "type": "address"
        }
      ],
      "name": "balanceOf",
      "outputs": [
        {
          "internalType": "uint256",
          "name": "balance",
          "type": "uint256"
        }
      ],
      "stateMutability": "view",
      "type": "function"
    },
    {
      "inputs": [],
      "name": "totalSupply",
      "outputs": [
        {
          "internalType": "uint256",
          "name": "total",
          "type": "uint256"
        }
      ],
      "stateMutability": "view",
      "type": "function"
    },
    {
      "inputs": [],
      "name": "name",
      "outputs": [
        {
          "internalType": "string",
          "name": "tokenName",
          "type": "string"
        }
      ],
      "stateMutability": "pure",
      "type": "function"
    },
    {
      "inputs": [],
      "name": "symbol",
      "outputs": [
        {
          "internalType": "string",
          "name": "tokenSymbol",
          "type": "string"
        }
      ],
      "stateMutability": "pure",
      "type": "function"
    },
    {
      "inputs": [
        {
          "internalType": "uint256",
          "name": "tokenId",
          "type": "uint256"
        }
      ],
      "name": "ownerOf",
      "outputs": [
        {
          "internalType": "address",
          "name": "owner",
          "type": "address"
        }
      ],
      "stateMutability": "view",
      "type": "function"
    },
    {
      "inputs": [
        {
          "internalType": "address",
          "name": "to",
          "type": "address"
        },
        {
          "internalType": "uint256",
          "name": "tokenId",
          "type": "uint256"
        }
      ],
      "name": "transfer",
      "outputs": [],
      "stateMutability": "nonpayable",
      "type": "function"
    },
    {
      "inputs": [
        {
          "internalType": "address",
          "name": "_approved",
          "type": "address"
        },
        {
          "internalType": "uint256",
          "name": "_tokenId",
          "type": "uint256"
        }
      ],
      "name": "approve",
      "outputs": [],
      "stateMutability": "nonpayable",
      "type": "function"
    },
    {
      "inputs": [
        {
          "internalType": "address",
          "name": "_operator",
          "type": "address"
        },
        {
          "internalType": "bool",
          "name": "_approved",
          "type": "bool"
        }
      ],
      "name": "setApprovalForAll",
      "outputs": [],
      "stateMutability": "nonpayable",
      "type": "function"
    },
    {
      "inputs": [
        {
          "internalType": "uint256",
          "name": "_tokenId",
          "type": "uint256"
        }
      ],
      "name": "getApproved",
      "outputs": [
        {
          "internalType": "address",
          "name": "",
          "type": "address"
        }
      ],
      "stateMutability": "view",
      "type": "function"
    },
    {
      "inputs": [
        {
          "internalType": "address",
          "name": "_owner",
          "type": "address"
        },
        {
          "internalType": "address",
          "name": "_operator",
          "type": "address"
        }
      ],
      "name": "isApprovedForAll",
      "outputs": [
        {
          "internalType": "bool",
          "name": "",
          "type": "bool"
        }
      ],
      "stateMutability": "view",
      "type": "function"
    },
    {
      "inputs": [
        {
          "internalType": "address",
          "name": "_from",
          "type": "address"
        },
        {
          "internalType": "address",
          "name": "_to",
          "type": "address"
        },
        {
          "internalType": "uint256",
          "name": "_tokenId",
          "type": "uint256"
        }
      ],
      "name": "transferFrom",
      "outputs": [],
      "stateMutability": "nonpayable",
      "type": "function"
    },
    {
      "inputs": [
        {
          "internalType": "address",
          "name": "_from",
          "type": "address"
        },
        {
          "internalType": "address",
          "name": "_to",
          "type": "address"
        },
        {
          "internalType": "uint256",
          "name": "_tokenId",
          "type": "uint256"
        }
      ],
      "name": "safeTransferFrom",
      "outputs": [],
      "stateMutability": "nonpayable",
      "type": "function"
    },
    {
      "inputs": [
        {
          "internalType": "address",
          "name": "_from",
          "type": "address"
        },
        {
          "internalType": "address",
          "name": "_to",
          "type": "address"
        },
        {
          "internalType": "uint256",
          "name": "_tokenId",
          "type": "uint256"
        },
        {
          "internalType": "bytes",
          "name": "data",
          "type": "bytes"
        }
      ],
      "name": "safeTransferFrom",
      "outputs": [],
      "stateMutability": "nonpayable",
      "type": "function"
    }
  ],
  "bytecode": "0x608060405234801561001057600080fd5b5060006100216100c460201b60201c565b9050806000806101000a81548173ffffffffffffffffffffffffffffffffffffffff021916908373ffffffffffffffffffffffffffffffffffffffff1602179055508073ffffffffffffffffffffffffffffffffffffffff16600073ffffffffffffffffffffffffffffffffffffffff167f8be0079c531659141344cd1fd0a4f28419497f9722a3daafe3b4186f6b6457e060405160405180910390a3506100cc565b600033905090565b6123ff806100db6000396000f3fe608060405234801561001057600080fd5b50600436106101585760003560e01c806383e7edd5116100c3578063a9059cbb1161007c578063a9059cbb146103cc578063b4834330146103e8578063b88d4fde14610406578063da08b83314610422578063e985e9c514610440578063f2fde38b1461047057610158565b806383e7edd5146102f65780638ba47bdd146103265780638da5cb5b146103445780638e7dda1f1461036257806395d89b4114610392578063a22cb465146103b057610158565b806342842e0e1161011557806342842e0e1461021d5780634da2b48e146102395780636352211e1461026e57806370a082311461029e578063715018a6146102ce57806375d0c0dc146102d857610158565b806306fdde031461015d578063081812fc1461017b578063095ea7b3146101ab57806312a55c96146101c757806318160ddd146101e357806323b872dd14610201575b600080fd5b61016561048c565b6040516101729190612028565b60405180910390f35b61019560048036038101906101909190611bf8565b6104c9565b6040516101a29190611f9f565b60405180910390f35b6101c560048036038101906101c09190611bbc565b610568565b005b6101e160048036038101906101dc9190611bf8565b6106d6565b005b6101eb6107c2565b6040516101f8919061218a565b60405180910390f35b61021b60048036038101906102169190611ab1565b6107cf565b005b61023760048036038101906102329190611ab1565b610a21565b005b610253600480360381019061024e9190611bf8565b610a26565b604051610265969594939291906121a5565b60405180910390f35b61028860048036038101906102839190611bf8565b610b3a565b6040516102959190611f9f565b60405180910390f35b6102b860048036038101906102b39190611a4c565b610bd9565b6040516102c5919061218a565b60405180910390f35b6102d6610c22565b005b6102e0610d5c565b6040516102ed9190612028565b60405180910390f35b610310600480360381019061030b9190611bf8565b610d95565b60405161031d9190611f9f565b60405180910390f35b61032e610dc8565b60405161033b9190612028565b60405180910390f35b61034c610e01565b6040516103599190611f9f565b60405180910390f35b61037c60048036038101906103779190611bf8565b610e2a565b6040516103899190611f9f565b60405180910390f35b61039a610e5d565b6040516103a79190612028565b60405180910390f35b6103ca60048036038101906103c59190611b80565b610e9a565b005b6103e660048036038101906103e19190611bbc565b610f7d565b005b6103f0611112565b6040516103fd919061218a565b60405180910390f35b610420600480360381019061041b9190611b00565b611117565b005b61042a61111e565b604051610437919061218a565b60405180910390f35b61045a60048036038101906104559190611a75565b611124565b604051610467919061200d565b60405180910390f35b61048a60048036038101906104859190611a4c565b6111b8565b005b60606040518060400160405280600781526020017f4269746361747300000000000000000000000000000000000000000000000000815250905090565b6000816004600082815260200190815260200160002060009054906101000a900460ff1661052c576040517f08c379a00000000000000000000000000000000000000000000000000000000081526004016105239061210a565b60405180910390fd5b6005600084815260200190815260200160002060009054906101000a900473ffffffffffffffffffffffffffffffffffffffff16915050919050565b806004600082815260200190815260200160002060009054906101000a900460ff166105c9576040517f08c379a00000000000000000000000000000000000000000000000000000000081526004016105c09061210a565b60405180910390fd5b813373ffffffffffffffffffffffffffffffffffffffff166003600083815260200190815260200160002060009054906101000a900473ffffffffffffffffffffffffffffffffffffffff1673ffffffffffffffffffffffffffffffffffffffff161461066b576040517f08c379a00000000000000000000000000000000000000000000000000000000081526004016106629061216a565b60405180910390fd5b6106758484611361565b828473ffffffffffffffffffffffffffffffffffffffff163373ffffffffffffffffffffffffffffffffffffffff167f8c5be1e5ebec7d5bd14f71427d1e84f3dd0314c0f7b2291e5b200ac8c7c3b92560405160405180910390a450505050565b6106de6113b7565b73ffffffffffffffffffffffffffffffffffffffff166106fc610e01565b73ffffffffffffffffffffffffffffffffffffffff1614610752576040517f08c379a00000000000000000000000000000000000000000000000000000000081526004016107499061212a565b60405180910390fd5b601960075410610797576040517f08c379a000000000000000000000000000000000000000000000000000000000815260040161078e906120aa565b60405180910390fd5b600760008154809291906107aa906122fb565b91905055506107be600080600084336113bf565b5050565b6000600180549050905090565b81600073ffffffffffffffffffffffffffffffffffffffff168173ffffffffffffffffffffffffffffffffffffffff161415610840576040517f08c379a00000000000000000000000000000000000000000000000000000000081526004016108379061206a565b60405180910390fd5b816004600082815260200190815260200160002060009054906101000a900460ff166108a1576040517f08c379a00000000000000000000000000000000000000000000000000000000081526004016108989061210a565b60405180910390fd5b84838173ffffffffffffffffffffffffffffffffffffffff166005600083815260200190815260200160002060009054906101000a900473ffffffffffffffffffffffffffffffffffffffff1673ffffffffffffffffffffffffffffffffffffffff1614610944576040517f08c379a000000000000000000000000000000000000000000000000000000000815260040161093b9061204a565b60405180910390fd5b3373ffffffffffffffffffffffffffffffffffffffff166003600087815260200190815260200160002060009054906101000a900473ffffffffffffffffffffffffffffffffffffffff1673ffffffffffffffffffffffffffffffffffffffff1614806109b757506109b6338661160e565b5b806109c857506109c7338661168b565b5b156109dd576109d8878787611763565b610a18565b6040517f08c379a0000000000000000000000000000000000000000000000000000000008152600401610a0f9061214a565b60405180910390fd5b50505050505050565b505050565b600080600080600080600060018881548110610a6b577f4e487b7100000000000000000000000000000000000000000000000000000000600052603260045260246000fd5b906000526020600020906002020190508060010160089054906101000a900463ffffffff1663ffffffff16965080600101600c9054906101000a900463ffffffff1663ffffffff1695508060010160109054906101000a900461ffff1661ffff1693508060010160009054906101000a900467ffffffffffffffff1667ffffffffffffffff169450806000015492506003600089815260200190815260200160002060009054906101000a900473ffffffffffffffffffffffffffffffffffffffff1691505091939550919395565b6000816004600082815260200190815260200160002060009054906101000a900460ff16610b9d576040517f08c379a0000000000000000000000000000000000000000000000000000000008152600401610b949061210a565b60405180910390fd5b6003600084815260200190815260200160002060009054906101000a900473ffffffffffffffffffffffffffffffffffffffff16915050919050565b6000600260008373ffffffffffffffffffffffffffffffffffffffff1673ffffffffffffffffffffffffffffffffffffffff168152602001908152602001600020549050919050565b610c2a6113b7565b73ffffffffffffffffffffffffffffffffffffffff16610c48610e01565b73ffffffffffffffffffffffffffffffffffffffff1614610c9e576040517f08c379a0000000000000000000000000000000000000000000000000000000008152600401610c959061212a565b60405180910390fd5b600073ffffffffffffffffffffffffffffffffffffffff1660008054906101000a900473ffffffffffffffffffffffffffffffffffffffff1673ffffffffffffffffffffffffffffffffffffffff167f8be0079c531659141344cd1fd0a4f28419497f9722a3daafe3b4186f6b6457e060405160405180910390a360008060006101000a81548173ffffffffffffffffffffffffffffffffffffffff021916908373ffffffffffffffffffffffffffffffffffffffff160217905550565b6040518060400160405280600781526020017f426974636174730000000000000000000000000000000000000000000000000081525081565b60036020528060005260406000206000915054906101000a900473ffffffffffffffffffffffffffffffffffffffff1681565b6040518060400160405280600481526020017f424954430000000000000000000000000000000000000000000000000000000081525081565b60008060009054906101000a900473ffffffffffffffffffffffffffffffffffffffff16905090565b60056020528060005260406000206000915054906101000a900473ffffffffffffffffffffffffffffffffffffffff1681565b60606040518060400160405280600481526020017f4249544300000000000000000000000000000000000000000000000000000000815250905090565b3373ffffffffffffffffffffffffffffffffffffffff168273ffffffffffffffffffffffffffffffffffffffff161415610f09576040517f08c379a0000000000000000000000000000000000000000000000000000000008152600401610f00906120ca565b60405180910390fd5b610f1433838361192a565b8173ffffffffffffffffffffffffffffffffffffffff163373ffffffffffffffffffffffffffffffffffffffff167f17307eab39ab6107e8899845ad3d59bd9653f200f220920489ca2b5937696c3183604051610f71919061200d565b60405180910390a35050565b81600073ffffffffffffffffffffffffffffffffffffffff168173ffffffffffffffffffffffffffffffffffffffff161415610fee576040517f08c379a0000000000000000000000000000000000000000000000000000000008152600401610fe59061206a565b60405180910390fd5b823073ffffffffffffffffffffffffffffffffffffffff168173ffffffffffffffffffffffffffffffffffffffff16141561105e576040517f08c379a0000000000000000000000000000000000000000000000000000000008152600401611055906120ea565b60405180910390fd5b823373ffffffffffffffffffffffffffffffffffffffff166003600083815260200190815260200160002060009054906101000a900473ffffffffffffffffffffffffffffffffffffffff1673ffffffffffffffffffffffffffffffffffffffff1614611100576040517f08c379a00000000000000000000000000000000000000000000000000000000081526004016110f79061216a565b60405180910390fd5b61110b338686611763565b5050505050565b601981565b5050505050565b60075481565b6000600660008473ffffffffffffffffffffffffffffffffffffffff1673ffffffffffffffffffffffffffffffffffffffff16815260200190815260200160002060008373ffffffffffffffffffffffffffffffffffffffff1673ffffffffffffffffffffffffffffffffffffffff16815260200190815260200160002060009054906101000a900460ff16905092915050565b6111c06113b7565b73ffffffffffffffffffffffffffffffffffffffff166111de610e01565b73ffffffffffffffffffffffffffffffffffffffff1614611234576040517f08c379a000000000000000000000000000000000000000000000000000000000815260040161122b9061212a565b60405180910390fd5b600073ffffffffffffffffffffffffffffffffffffffff168173ffffffffffffffffffffffffffffffffffffffff1614156112a4576040517f08c379a000000000000000000000000000000000000000000000000000000000815260040161129b9061208a565b60405180910390fd5b8073ffffffffffffffffffffffffffffffffffffffff1660008054906101000a900473ffffffffffffffffffffffffffffffffffffffff1673ffffffffffffffffffffffffffffffffffffffff167f8be0079c531659141344cd1fd0a4f28419497f9722a3daafe3b4186f6b6457e060405160405180910390a3806000806101000a81548173ffffffffffffffffffffffffffffffffffffffff021916908373ffffffffffffffffffffffffffffffffffffffff16021790555050565b816005600083815260200190815260200160002060006101000a81548173ffffffffffffffffffffffffffffffffffffffff021916908373ffffffffffffffffffffffffffffffffffffffff1602179055505050565b600033905090565b6000806040518060a001604052808581526020014267ffffffffffffffff1681526020018863ffffffff1681526020018763ffffffff1681526020018661ffff16815250905060018190806001815401808255809150506001900390600052602060002090600202016000909190919091506000820151816000015560208201518160010160006101000a81548167ffffffffffffffff021916908367ffffffffffffffff16021790555060408201518160010160086101000a81548163ffffffff021916908363ffffffff160217905550606082015181600101600c6101000a81548163ffffffff021916908363ffffffff16021790555060808201518160010160106101000a81548161ffff021916908361ffff16021790555050506000600180805490506114f09190612222565b905060016004600083815260200190815260200160002060006101000a81548160ff021916908315150217905550836003600083815260200190815260200160002060006101000a81548173ffffffffffffffffffffffffffffffffffffffff021916908373ffffffffffffffffffffffffffffffffffffffff1602179055506001600260008073ffffffffffffffffffffffffffffffffffffffff1673ffffffffffffffffffffffffffffffffffffffff168152602001908152602001600020819055506115c160008583611763565b7f0a5311bd2a6608f08a180df2ee7c5946819a649b204b554bb8e39825b2c50ad584828a8a896040516115f8959493929190611fba565b60405180910390a1809250505095945050505050565b60008273ffffffffffffffffffffffffffffffffffffffff166005600084815260200190815260200160002060009054906101000a900473ffffffffffffffffffffffffffffffffffffffff1673ffffffffffffffffffffffffffffffffffffffff1614156116805760019050611685565b600090505b92915050565b6000600660006003600085815260200190815260200160002060009054906101000a900473ffffffffffffffffffffffffffffffffffffffff1673ffffffffffffffffffffffffffffffffffffffff1673ffffffffffffffffffffffffffffffffffffffff16815260200190815260200160002060008473ffffffffffffffffffffffffffffffffffffffff1673ffffffffffffffffffffffffffffffffffffffff16815260200190815260200160002060009054906101000a900460ff1615611758576001905061175d565b600090505b92915050565b600260008373ffffffffffffffffffffffffffffffffffffffff1673ffffffffffffffffffffffffffffffffffffffff16815260200190815260200160002060008154809291906117b3906122fb565b9190505550816003600083815260200190815260200160002060006101000a81548173ffffffffffffffffffffffffffffffffffffffff021916908373ffffffffffffffffffffffffffffffffffffffff160217905550600073ffffffffffffffffffffffffffffffffffffffff168373ffffffffffffffffffffffffffffffffffffffff16146118ca57600260008473ffffffffffffffffffffffffffffffffffffffff1673ffffffffffffffffffffffffffffffffffffffff168152602001908152602001600020600081548092919061188e906122d1565b91905055506005600082815260200190815260200160002060006101000a81549073ffffffffffffffffffffffffffffffffffffffff02191690555b808273ffffffffffffffffffffffffffffffffffffffff168473ffffffffffffffffffffffffffffffffffffffff167fddf252ad1be2c89b69c2b068fc378daa952ba7f163c4a11628f55a4df523b3ef60405160405180910390a4505050565b80600660008573ffffffffffffffffffffffffffffffffffffffff1673ffffffffffffffffffffffffffffffffffffffff16815260200190815260200160002060008473ffffffffffffffffffffffffffffffffffffffff1673ffffffffffffffffffffffffffffffffffffffff16815260200190815260200160002060006101000a81548160ff021916908315150217905550505050565b6000813590506119d281612384565b92915050565b6000813590506119e78161239b565b92915050565b60008083601f8401126119ff57600080fd5b8235905067ffffffffffffffff811115611a1857600080fd5b602083019150836001820283011115611a3057600080fd5b9250929050565b600081359050611a46816123b2565b92915050565b600060208284031215611a5e57600080fd5b6000611a6c848285016119c3565b91505092915050565b60008060408385031215611a8857600080fd5b6000611a96858286016119c3565b9250506020611aa7858286016119c3565b9150509250929050565b600080600060608486031215611ac657600080fd5b6000611ad4868287016119c3565b9350506020611ae5868287016119c3565b9250506040611af686828701611a37565b9150509250925092565b600080600080600060808688031215611b1857600080fd5b6000611b26888289016119c3565b9550506020611b37888289016119c3565b9450506040611b4888828901611a37565b935050606086013567ffffffffffffffff811115611b6557600080fd5b611b71888289016119ed565b92509250509295509295909350565b60008060408385031215611b9357600080fd5b6000611ba1858286016119c3565b9250506020611bb2858286016119d8565b9150509250929050565b60008060408385031215611bcf57600080fd5b6000611bdd858286016119c3565b9250506020611bee85828601611a37565b9150509250929050565b600060208284031215611c0a57600080fd5b6000611c1884828501611a37565b91505092915050565b611c2a81612256565b82525050565b611c3981612268565b82525050565b6000611c4a82612206565b611c548185612211565b9350611c6481856020860161229e565b611c6d81612373565b840191505092915050565b6000611c85603083612211565b91507f54686520696e7075747465642061646472657373206973206e6f74207468652060008301527f6f776e6572206f662074686520636174000000000000000000000000000000006020830152604082019050919050565b6000611ceb601b83612211565b91507f43616e6e6f7420626520746865207a65726f20616464726573732e00000000006000830152602082019050919050565b6000611d2b602683612211565b91507f4f776e61626c653a206e6577206f776e657220697320746865207a65726f206160008301527f64647265737300000000000000000000000000000000000000000000000000006020830152604082019050919050565b6000611d91601683612211565b91507f4372656174696f6e206c696d69742072656163686564000000000000000000006000830152602082019050919050565b6000611dd1602c83612211565b91507f596f752063616e27742073657420796f757273656c6620617320617070726f7660008301527f6564206f70657261746f722e00000000000000000000000000000000000000006020830152604082019050919050565b6000611e37602083612211565b91507f43616e6e6f74206265207468697320636f6e747261637420616464726573732e6000830152602082019050919050565b6000611e77601e83612211565b91507f546869732063617420646f65736e27742065786973742c20736f7272792e00006000830152602082019050919050565b6000611eb7602083612211565b91507f4f776e61626c653a2063616c6c6572206973206e6f7420746865206f776e65726000830152602082019050919050565b6000611ef7602183612211565b91507f5452414e53464552204552524f523a20556e617574686f72697a65642075736560008301527f72000000000000000000000000000000000000000000000000000000000000006020830152604082019050919050565b6000611f5d601783612211565b91507f596f7520646f206e6f74206f776e2074686973206361740000000000000000006000830152602082019050919050565b611f9981612294565b82525050565b6000602082019050611fb46000830184611c21565b92915050565b600060a082019050611fcf6000830188611c21565b611fdc6020830187611f90565b611fe96040830186611f90565b611ff66060830185611f90565b6120036080830184611f90565b9695505050505050565b60006020820190506120226000830184611c30565b92915050565b600060208201905081810360008301526120428184611c3f565b905092915050565b6000602082019050818103600083015261206381611c78565b9050919050565b6000602082019050818103600083015261208381611cde565b9050919050565b600060208201905081810360008301526120a381611d1e565b9050919050565b600060208201905081810360008301526120c381611d84565b9050919050565b600060208201905081810360008301526120e381611dc4565b9050919050565b6000602082019050818103600083015261210381611e2a565b9050919050565b6000602082019050818103600083015261212381611e6a565b9050919050565b6000602082019050818103600083015261214381611eaa565b9050919050565b6000602082019050818103600083015261216381611eea565b9050919050565b6000602082019050818103600083015261218381611f50565b9050919050565b600060208201905061219f6000830184611f90565b92915050565b600060c0820190506121ba6000830189611f90565b6121c76020830188611f90565b6121d46040830187611f90565b6121e16060830186611f90565b6121ee6080830185611f90565b6121fb60a0830184611c21565b979650505050505050565b600081519050919050565b600082825260208201905092915050565b600061222d82612294565b915061223883612294565b92508282101561224b5761224a612344565b5b828203905092915050565b600061226182612274565b9050919050565b60008115159050919050565b600073ffffffffffffffffffffffffffffffffffffffff82169050919050565b6000819050919050565b60005b838110156122bc5780820151818401526020810190506122a1565b838111156122cb576000848401525b50505050565b60006122dc82612294565b915060008214156122f0576122ef612344565b5b600182039050919050565b600061230682612294565b91507fffffffffffffffffffffffffffffffffffffffffffffffffffffffffffffffff82141561233957612338612344565b5b600182019050919050565b7f4e487b7100000000000000000000000000000000000000000000000000000000600052601160045260246000fd5b6000601f19601f8301169050919050565b61238d81612256565b811461239857600080fd5b50565b6123a481612268565b81146123af57600080fd5b50565b6123bb81612294565b81146123c657600080fd5b5056fea26469706673582212208882d9f72e97daf1a49ba6e0ddce06b10a61a2fdd96e0da38142eca97d5000c664736f6c63430008000033",
  "immutableReferences": {},
  "source": "// SPDX-License-Identifier: MIT\n\n/**\n * @author Nes B.\n * @dev Bitcats ERC721 main contract & functions\n * @notice Developed using Truffle 5.3.2\n */\npragma solidity ^0.8.0;\n\nimport \"./IERC721.sol\";\nimport \"./Ownable.sol\";\nimport \"./IERC721Receiver.sol\";\n\ncontract Bitcats is IERC721, Ownable {\n\n    uint256 public constant CREATION_LIMIT_GEN0 = 25;\n    string public constant contractName = \"Bitcats\";\n    string public constant ticker = \"BITC\";\n\n    bytes4 internal constant _ERC721_RECEIVED = bytes4(keccak256(\"onERC721Received(address,address,uint256,bytes)\"));\n\n\n    struct Cat {\n        uint256 genes;\n        uint64 birthTime;\n        uint32 momId;\n        uint32 dadId;\n        uint16 generation;\n    }\n\n    Cat[] cats;\n    \n    mapping (address => uint256) ownedTokenCount;\n    mapping (uint256 => address) public catOwnership;\n    mapping (uint256 => bool) catExists;\n\n    mapping (uint256 => address) public catIndexApproved;\n    mapping (address => mapping (address => bool)) private operatorApprovals;\n    \n\n    uint256 public gen0counter;\n    /**\n     * MODIFIERS\n     */\n    modifier noZero(address _address) {\n        require(_address != address(0), \"Cannot be the zero address.\");\n        _;\n    }\n\n    modifier notThisContract(address _address) {\n        require(_address != address(this), \"Cannot be this contract address.\");\n        _;\n    }\n\n    modifier catMustExist(uint256 tokenId) {\n        require(catExists[tokenId], \"This cat doesn't exist, sorry.\");\n        _;\n    }\n\n    modifier onlyCatOwner(uint tokenId) {\n        require(catOwnership[tokenId] == address(msg.sender), \"You do not own this cat\");\n        _;\n    }\n\n    modifier onlyCatApproved(uint tokenId) {\n        require(catIndexApproved[tokenId] == msg.sender, \"You are not an authorized operator of this cat.\");\n        _;\n    }\n\n    modifier isOwner(address owner, uint256 tokenId) {\n        require(catIndexApproved[tokenId] == owner, \"The inputted address is not the owner of the cat\");\n        _;\n    }\n\n    /**\n     * Additional events\n     */\n    event Birth(address _owner, uint256 _catId, uint256 _momId, uint256 _dadId, uint256 _genes);\n\n    /**\n     * Creating cats\n     */\n\n    function _createCat(\n        uint256 _momId,\n        uint256 _dadId,\n        uint256 _generation,\n        uint256 _genes,\n        address _owner\n    ) private returns (uint256) {\n        \n        Cat memory _cat = Cat({\n            genes: _genes,\n            birthTime: uint64(block.timestamp),\n            momId: uint32(_momId),\n            dadId: uint32(_dadId),\n            generation: uint16(_generation)\n        });\n\n        cats.push(_cat);\n\n        uint256 newCatId = cats.length - 1;\n\n        catExists[newCatId] =  true;         // Updating mappings\n        catOwnership[newCatId] = _owner;     // Updating mappings\n\n        ownedTokenCount[address(0)] = 1;\n\n        _transfer(address(0), _owner, newCatId);\n\n        emit Birth(_owner, newCatId, _momId, _dadId, _genes);\n\n        return newCatId;\n    }\n\n    function createCatGen0(uint256 _genes) public onlyOwner {\n        require(gen0counter < CREATION_LIMIT_GEN0, \"Creation limit reached\");\n        gen0counter++;\n        _createCat(0, 0, 0, _genes, msg.sender);\n    }\n\n    function getCat(uint256 _tokenId) public view returns (\n        uint256 momId, \n        uint256 dadId,\n        uint256 birthtime,\n        uint256 generation, \n        uint256 genes, \n        address owner\n    ) \n    {\n        Cat storage cat = cats[_tokenId];\n\n        momId = cat.momId;\n        dadId = cat.dadId;\n        generation = cat.generation;\n        birthtime = cat.birthTime;\n        genes = cat.genes;\n        owner = catOwnership[_tokenId];\n    }\n\n\n    /**\n     * ERC721 implementation\n     * (See IERC721 for notes)\n     */\n\n    function balanceOf(address owner) external view override returns (uint256 balance) {\n        return ownedTokenCount[owner];\n    }\n\n    function totalSupply() external view override returns (uint256 total) {\n        return cats.length;\n    }\n\n    function name() external pure override returns (string memory tokenName) {\n        return contractName;\n    }\n\n    function symbol() external pure override returns (string memory tokenSymbol) {\n        return ticker;\n    }\n\n    function ownerOf(uint256 tokenId) external view override catMustExist(tokenId) returns (address owner) {\n        return catOwnership[tokenId];\n    }\n\n    function transfer(address to, uint256 tokenId) external override noZero(to) notThisContract(to) onlyCatOwner(tokenId) {\n        _transfer(msg.sender, to, tokenId);\n    }\n\n    function approve(address _approved, uint256 _tokenId) override external catMustExist(_tokenId) onlyCatOwner(_tokenId) {\n        _approve(_approved, _tokenId);\n        emit Approval(msg.sender, _approved, _tokenId);\n    }\n\n    function setApprovalForAll(address _operator, bool _approved) override external{\n        require (_operator != msg.sender, \"You can't set yourself as approved operator.\");\n        _setApprovalForAll(msg.sender, _operator, _approved);\n        emit ApprovalForAll(msg.sender, _operator, _approved);\n    }\n\n    function getApproved(uint256 _tokenId) override external view catMustExist(_tokenId) returns (address){\n        return catIndexApproved[_tokenId];\n    }\n\n    function isApprovedForAll(address _owner, address _operator) override external view returns (bool){\n        return operatorApprovals[_owner][_operator];\n    }\n\n    function transferFrom(address _from, address _to, uint256 _tokenId) override external noZero(_to) catMustExist(_tokenId) isOwner(_from, _tokenId){\n        if(catOwnership[_tokenId] == address(msg.sender)    // Cat owner\n        || _isApproved(msg.sender, _tokenId)                // Approved user\n        || _isApprovedForAll(msg.sender, _tokenId)) {       // Approved operator\n            _transfer(_from, _to, _tokenId);\n        } else {\n            revert(\"TRANSFER ERROR: Unauthorized user\");\n        }\n    }\n\n    function safeTransferFrom(address _from, address _to, uint256 _tokenId) override external{\n\n    }\n\n    function safeTransferFrom(address _from, address _to, uint256 _tokenId, bytes calldata data) override external{\n\n    }\n\n\n    /**\n     * Internal functions\n     */\n\n    function _transfer(address _from, address _to, uint256 _tokenId) internal {\n        ownedTokenCount[_to]++;\n        catOwnership[_tokenId] = _to;\n\n        if (_from != address(0)){\n            ownedTokenCount[_from]--;\n            delete catIndexApproved[_tokenId];\n        }\n\n        emit Transfer(_from, _to, _tokenId);\n    }\n\n    function _owns (address _claimant, uint256 _tokenId) internal view returns (bool) {\n        if(catOwnership[_tokenId] == _claimant) {\n            return true;\n        } else {\n            return false;\n        }\n    }\n\n    function _approve(address _approved, uint256 _tokenId) internal {\n        catIndexApproved[_tokenId] = _approved;\n    }\n\n    function _setApprovalForAll(address _allower, address _operator, bool _approved) internal {\n        operatorApprovals[_allower][_operator] = _approved;\n    }\n\n    function _isApproved(address _approved, uint256 _tokenId) internal view returns (bool) {\n        if (catIndexApproved[_tokenId] == _approved)\n            return true;\n        else\n            return false;\n             \n    }\n\n    function _isApprovedForAll(address _approved, uint256 _tokenId) internal view returns (bool) {\n        if (operatorApprovals[catOwnership[_tokenId]][_approved])\n            return true;\n        else\n            return false;\n    }\n\n    function _safeTransfer(address _from, address _to, uint256 _tokenId, bytes memory _data) internal {\n        _transfer(_from, _to, _tokenId);\n        require(_checkERC721Support(_from, _to, _tokenId, _data));\n    }\n\n    function _checkERC721Support(address _from, address _to, uint256 _tokenId, bytes memory _data) internal returns (bool) {\n        if(!_isContract(_to)) {\n            return true;\n        }\n\n        bytes4 returnData = IERC721Receiver(_to).onERC721Received(msg.sender, _to, _tokenId, _data);\n\n        return (returnData == _ERC721_RECEIVED);\n\n        // require()\n        // Call onERC721Received in the _to contract\n        // Check returned value\n    }\n\n    function _isContract(address _to) view internal returns (bool) {\n        uint32 size;\n        assembly{\n            size := extcodesize(_to)\n        }\n\n        return (size > 0);\n    }\n}",
  "sourcePath": "/Users/solaris/Workspace/SolidityWS/bitcats/contracts/Bitcats.sol",
  "compiler": {
    "name": "solc",
    "version": "0.8.0+commit.c7dfd78e.Emscripten.clang"
  },
  "schemaVersion": "3.3.4",
  "updatedAt": "2021-05-09T05:15:44.610Z",
  "devdoc": {
    "kind": "dev",
    "methods": {
      "approve(address,uint256)": {
        "details": "The zero address indicates there is no approved address.  Throws unless `msg.sender` is the current NFT owner, or an authorized  operator of the current owner.",
        "params": {
          "_approved": "The new approved NFT controller",
          "_tokenId": "The NFT to approve"
        }
      },
      "getApproved(uint256)": {
        "details": "Throws if `_tokenId` is not a valid NFT.",
        "params": {
          "_tokenId": "The NFT to find the approved address for"
        },
        "returns": {
          "_0": "The approved address for this NFT, or the zero address if there is none"
        }
      },
      "isApprovedForAll(address,address)": {
        "params": {
          "_operator": "The address that acts on behalf of the owner",
          "_owner": "The address that owns the NFTs"
        },
        "returns": {
          "_0": "True if `_operator` is an approved operator for `_owner`, false otherwise"
        }
      },
      "name()": {
        "details": "Returns the name of the token."
      },
      "owner()": {
        "details": "Returns the address of the current owner."
      },
      "ownerOf(uint256)": {
        "details": "Returns the owner of the `tokenId` token. Requirements: - `tokenId` must exist."
      },
      "renounceOwnership()": {
        "details": "Leaves the contract without owner. It will not be possible to call `onlyOwner` functions anymore. Can only be called by the current owner. NOTE: Renouncing ownership will leave the contract without an owner, thereby removing any functionality that is only available to the owner."
      },
      "safeTransferFrom(address,address,uint256)": {
        "details": "This works identically to the other function with an extra data parameter,  except this function just sets data to \"\".",
        "params": {
          "_from": "The current owner of the NFT",
          "_to": "The new owner",
          "_tokenId": "The NFT to transfer"
        }
      },
      "safeTransferFrom(address,address,uint256,bytes)": {
        "details": "Throws unless `msg.sender` is the current owner, an authorized  operator, or the approved address for this NFT. Throws if `_from` is  not the current owner. Throws if `_to` is the zero address. Throws if  `_tokenId` is not a valid NFT. When transfer is complete, this function  checks if `_to` is a smart contract (code size > 0). If so, it calls  `onERC721Received` on `_to` and throws if the return value is not  `bytes4(keccak256(\"onERC721Received(address,address,uint256,bytes)\"))`.",
        "params": {
          "_from": "The current owner of the NFT",
          "_to": "The new owner",
          "_tokenId": "The NFT to transfer",
          "data": "Additional data with no specified format, sent in call to `_to`"
        }
      },
      "setApprovalForAll(address,bool)": {
        "details": "Emits the ApprovalForAll event. The contract MUST allow  multiple operators per owner.",
        "params": {
          "_approved": "True if the operator is approved, false to revoke approval",
          "_operator": "Address to add to the set of authorized operators"
        }
      },
      "symbol()": {
        "details": "Returns the symbol of the token."
      },
      "totalSupply()": {
        "details": "Returns the total number of tokens in circulation."
      },
      "transfer(address,uint256)": {
        "details": "Transfers `tokenId` token from `msg.sender` to `to`. Requirements: - `to` cannot be the zero address. - `to` can not be the contract address. - `tokenId` token must be owned by `msg.sender`. Emits a {Transfer} event."
      },
      "transferFrom(address,address,uint256)": {
        "details": "Throws unless `msg.sender` is the current owner, an authorized  operator, or the approved address for this NFT. Throws if `_from` is  not the current owner. Throws if `_to` is the zero address. Throws if  `_tokenId` is not a valid NFT.",
        "params": {
          "_from": "The current owner of the NFT",
          "_to": "The new owner",
          "_tokenId": "The NFT to transfer"
        }
      },
      "transferOwnership(address)": {
        "details": "Transfers ownership of the contract to a new account (`newOwner`). Can only be called by the current owner."
      }
    },
    "version": 1
  },
  "userdoc": {
    "events": {
      "Birth(address,uint256,uint256,uint256,uint256)": {
        "notice": "Additional events"
      }
    },
    "kind": "user",
    "methods": {
      "approve(address,uint256)": {
        "notice": "Change or reaffirm the approved address for an NFT"
      },
      "balanceOf(address)": {
        "notice": "ERC721 implementation (See IERC721 for notes)"
      },
      "getApproved(uint256)": {
        "notice": "Get the approved address for a single NFT"
      },
      "isApprovedForAll(address,address)": {
        "notice": "Query if an address is an authorized operator for another address"
      },
      "safeTransferFrom(address,address,uint256)": {
        "notice": "Transfers the ownership of an NFT from one address to another address"
      },
      "safeTransferFrom(address,address,uint256,bytes)": {
        "notice": "Transfers the ownership of an NFT from one address to another address"
      },
      "setApprovalForAll(address,bool)": {
        "notice": "Enable or disable approval for a third party (\"operator\") to manage  all of `msg.sender`'s assets"
      },
      "transferFrom(address,address,uint256)": {
        "notice": "Transfer ownership of an NFT -- THE CALLER IS RESPONSIBLE  TO CONFIRM THAT `_to` IS CAPABLE OF RECEIVING NFTS OR ELSE  THEY MAY BE PERMANENTLY LOST"
      }
    },
    "version": 1
  }
}